:060000000A128A11142906
:10000800F000030EF1000B1810200B191820F10E48
:100018008300F00E700E090003138312061C850A74
:10002800861C85030B10080003138312FA30810025
:100038000B11880121182A28A1182E2821193228E5
:10004800A11936282B08870008143A282C0887009D
:1000580088143A282508870008153A2826088700B2
:1000680088153A282708870008163A2821080F39E2
:04007800A10A0800D1
:100200008A010A140F3982073F3406345B344F34B5
:1002100066346D347D3407347F346F3477347C3406
:1002200039345E3479347134682153216F2175215A
:100230007E21031383120508A00023212A2105082B
:10024000A80031211B2920080F39A900200E0F39E1
:10025000AA00080029080021AB002A080021AC00F0
:100260000800A201A301A4016430A8020318A40A93
:1002700003183529A8070A30A8020318A30A03188F
:100280003C29A8072808A20046210800A501A601CC
:10029000A70124080021A70023080021A6002208A6
:1002A0000021A500080003178316880189010313A4
:1002B000831685010614861487018801811315149D
:1002C000951403138312850187018801A801080092
:1002D000031383160F178F160F120F1408008B17B6
:1002E0008B150B108B160B110800031383161614B5
:1002F00096140313831206080B10080003138316C9
:100300008112811101158114011403138312031347
:0A0310008312FA3081000B1108007F
:04400E00C430FF3F7C
:00000001FF
